{
  "contractName": "PokeToken",
  "abi": [
    {
      "inputs": [
        {
          "internalType": "string",
          "name": "_name",
          "type": "string"
        },
        {
          "internalType": "string",
          "name": "_symbol",
          "type": "string"
        }
      ],
      "stateMutability": "nonpayable",
      "type": "constructor"
    },
    {
      "anonymous": false,
      "inputs": [
        {
          "indexed": true,
          "internalType": "address",
          "name": "owner",
          "type": "address"
        },
        {
          "indexed": true,
          "internalType": "address",
          "name": "approved",
          "type": "address"
        },
        {
          "indexed": true,
          "internalType": "uint256",
          "name": "tokenId",
          "type": "uint256"
        }
      ],
      "name": "Approval",
      "type": "event"
    },
    {
      "anonymous": false,
      "inputs": [
        {
          "indexed": true,
          "internalType": "address",
          "name": "owner",
          "type": "address"
        },
        {
          "indexed": true,
          "internalType": "address",
          "name": "operator",
          "type": "address"
        },
        {
          "indexed": false,
          "internalType": "bool",
          "name": "approved",
          "type": "bool"
        }
      ],
      "name": "ApprovalForAll",
      "type": "event"
    },
    {
      "anonymous": false,
      "inputs": [
        {
          "indexed": true,
          "internalType": "address",
          "name": "owner",
          "type": "address"
        },
        {
          "indexed": false,
          "internalType": "uint256",
          "name": "id",
          "type": "uint256"
        },
        {
          "indexed": false,
          "internalType": "uint256",
          "name": "dna",
          "type": "uint256"
        }
      ],
      "name": "NewPokemon",
      "type": "event"
    },
    {
      "anonymous": false,
      "inputs": [
        {
          "indexed": true,
          "internalType": "address",
          "name": "previousOwner",
          "type": "address"
        },
        {
          "indexed": true,
          "internalType": "address",
          "name": "newOwner",
          "type": "address"
        }
      ],
      "name": "OwnershipTransferred",
      "type": "event"
    },
    {
      "anonymous": false,
      "inputs": [
        {
          "indexed": true,
          "internalType": "address",
          "name": "from",
          "type": "address"
        },
        {
          "indexed": true,
          "internalType": "address",
          "name": "to",
          "type": "address"
        },
        {
          "indexed": true,
          "internalType": "uint256",
          "name": "tokenId",
          "type": "uint256"
        }
      ],
      "name": "Transfer",
      "type": "event"
    },
    {
      "inputs": [
        {
          "internalType": "address",
          "name": "to",
          "type": "address"
        },
        {
          "internalType": "uint256",
          "name": "tokenId",
          "type": "uint256"
        }
      ],
      "name": "approve",
      "outputs": [],
      "stateMutability": "nonpayable",
      "type": "function"
    },
    {
      "inputs": [
        {
          "internalType": "address",
          "name": "owner",
          "type": "address"
        }
      ],
      "name": "balanceOf",
      "outputs": [
        {
          "internalType": "uint256",
          "name": "",
          "type": "uint256"
        }
      ],
      "stateMutability": "view",
      "type": "function",
      "constant": true
    },
    {
      "inputs": [
        {
          "internalType": "uint256",
          "name": "tokenId",
          "type": "uint256"
        }
      ],
      "name": "getApproved",
      "outputs": [
        {
          "internalType": "address",
          "name": "",
          "type": "address"
        }
      ],
      "stateMutability": "view",
      "type": "function",
      "constant": true
    },
    {
      "inputs": [
        {
          "internalType": "address",
          "name": "owner",
          "type": "address"
        },
        {
          "internalType": "address",
          "name": "operator",
          "type": "address"
        }
      ],
      "name": "isApprovedForAll",
      "outputs": [
        {
          "internalType": "bool",
          "name": "",
          "type": "bool"
        }
      ],
      "stateMutability": "view",
      "type": "function",
      "constant": true
    },
    {
      "inputs": [],
      "name": "name",
      "outputs": [
        {
          "internalType": "string",
          "name": "",
          "type": "string"
        }
      ],
      "stateMutability": "view",
      "type": "function",
      "constant": true
    },
    {
      "inputs": [],
      "name": "owner",
      "outputs": [
        {
          "internalType": "address",
          "name": "",
          "type": "address"
        }
      ],
      "stateMutability": "view",
      "type": "function",
      "constant": true
    },
    {
      "inputs": [
        {
          "internalType": "uint256",
          "name": "tokenId",
          "type": "uint256"
        }
      ],
      "name": "ownerOf",
      "outputs": [
        {
          "internalType": "address",
          "name": "",
          "type": "address"
        }
      ],
      "stateMutability": "view",
      "type": "function",
      "constant": true
    },
    {
      "inputs": [
        {
          "internalType": "uint256",
          "name": "",
          "type": "uint256"
        }
      ],
      "name": "pokemons",
      "outputs": [
        {
          "internalType": "string",
          "name": "name",
          "type": "string"
        },
        {
          "internalType": "uint256",
          "name": "id",
          "type": "uint256"
        },
        {
          "internalType": "uint256",
          "name": "dna",
          "type": "uint256"
        },
        {
          "internalType": "uint8",
          "name": "level",
          "type": "uint8"
        },
        {
          "internalType": "uint8",
          "name": "rarity",
          "type": "uint8"
        }
      ],
      "stateMutability": "view",
      "type": "function",
      "constant": true
    },
    {
      "inputs": [],
      "name": "renounceOwnership",
      "outputs": [],
      "stateMutability": "nonpayable",
      "type": "function"
    },
    {
      "inputs": [
        {
          "internalType": "address",
          "name": "from",
          "type": "address"
        },
        {
          "internalType": "address",
          "name": "to",
          "type": "address"
        },
        {
          "internalType": "uint256",
          "name": "tokenId",
          "type": "uint256"
        }
      ],
      "name": "safeTransferFrom",
      "outputs": [],
      "stateMutability": "nonpayable",
      "type": "function"
    },
    {
      "inputs": [
        {
          "internalType": "address",
          "name": "from",
          "type": "address"
        },
        {
          "internalType": "address",
          "name": "to",
          "type": "address"
        },
        {
          "internalType": "uint256",
          "name": "tokenId",
          "type": "uint256"
        },
        {
          "internalType": "bytes",
          "name": "_data",
          "type": "bytes"
        }
      ],
      "name": "safeTransferFrom",
      "outputs": [],
      "stateMutability": "nonpayable",
      "type": "function"
    },
    {
      "inputs": [
        {
          "internalType": "address",
          "name": "operator",
          "type": "address"
        },
        {
          "internalType": "bool",
          "name": "approved",
          "type": "bool"
        }
      ],
      "name": "setApprovalForAll",
      "outputs": [],
      "stateMutability": "nonpayable",
      "type": "function"
    },
    {
      "inputs": [
        {
          "internalType": "bytes4",
          "name": "interfaceId",
          "type": "bytes4"
        }
      ],
      "name": "supportsInterface",
      "outputs": [
        {
          "internalType": "bool",
          "name": "",
          "type": "bool"
        }
      ],
      "stateMutability": "view",
      "type": "function",
      "constant": true
    },
    {
      "inputs": [],
      "name": "symbol",
      "outputs": [
        {
          "internalType": "string",
          "name": "",
          "type": "string"
        }
      ],
      "stateMutability": "view",
      "type": "function",
      "constant": true
    },
    {
      "inputs": [
        {
          "internalType": "uint256",
          "name": "tokenId",
          "type": "uint256"
        }
      ],
      "name": "tokenURI",
      "outputs": [
        {
          "internalType": "string",
          "name": "",
          "type": "string"
        }
      ],
      "stateMutability": "view",
      "type": "function",
      "constant": true
    },
    {
      "inputs": [
        {
          "internalType": "address",
          "name": "from",
          "type": "address"
        },
        {
          "internalType": "address",
          "name": "to",
          "type": "address"
        },
        {
          "internalType": "uint256",
          "name": "tokenId",
          "type": "uint256"
        }
      ],
      "name": "transferFrom",
      "outputs": [],
      "stateMutability": "nonpayable",
      "type": "function"
    },
    {
      "inputs": [
        {
          "internalType": "address",
          "name": "newOwner",
          "type": "address"
        }
      ],
      "name": "transferOwnership",
      "outputs": [],
      "stateMutability": "nonpayable",
      "type": "function"
    },
    {
      "inputs": [
        {
          "internalType": "uint256",
          "name": "_fee",
          "type": "uint256"
        }
      ],
      "name": "updateFee",
      "outputs": [],
      "stateMutability": "nonpayable",
      "type": "function"
    },
    {
      "inputs": [],
      "name": "withdrawFunds",
      "outputs": [],
      "stateMutability": "nonpayable",
      "type": "function"
    },
    {
      "inputs": [
        {
          "internalType": "string",
          "name": "_name",
          "type": "string"
        }
      ],
      "name": "createRandomPokemon",
      "outputs": [],
      "stateMutability": "payable",
      "type": "function",
      "payable": true
    },
    {
      "inputs": [],
      "name": "getPokemons",
      "outputs": [
        {
          "components": [
            {
              "internalType": "string",
              "name": "name",
              "type": "string"
            },
            {
              "internalType": "uint256",
              "name": "id",
              "type": "uint256"
            },
            {
              "internalType": "uint256",
              "name": "dna",
              "type": "uint256"
            },
            {
              "internalType": "uint8",
              "name": "level",
              "type": "uint8"
            },
            {
              "internalType": "uint8",
              "name": "rarity",
              "type": "uint8"
            }
          ],
          "internalType": "struct PokeToken.Pokemon[]",
          "name": "",
          "type": "tuple[]"
        }
      ],
      "stateMutability": "view",
      "type": "function",
      "constant": true
    },
    {
      "inputs": [
        {
          "internalType": "address",
          "name": "_owner",
          "type": "address"
        }
      ],
      "name": "getOwnerPokemons",
      "outputs": [
        {
          "components": [
            {
              "internalType": "string",
              "name": "name",
              "type": "string"
            },
            {
              "internalType": "uint256",
              "name": "id",
              "type": "uint256"
            },
            {
              "internalType": "uint256",
              "name": "dna",
              "type": "uint256"
            },
            {
              "internalType": "uint8",
              "name": "level",
              "type": "uint8"
            },
            {
              "internalType": "uint8",
              "name": "rarity",
              "type": "uint8"
            }
          ],
          "internalType": "struct PokeToken.Pokemon[]",
          "name": "",
          "type": "tuple[]"
        }
      ],
      "stateMutability": "view",
      "type": "function",
      "constant": true
    }
  ],
  "bytecode": "0x6080604052670de0b6b3a76400006008553480156200001d57600080fd5b50604051620022c5380380620022c583398101604081905262000040916200025d565b81518290829062000059906000906020850190620000ea565b5080516200006f906001906020840190620000ea565b5050506200008c620000866200009460201b60201c565b62000098565b505062000304565b3390565b600680546001600160a01b038381166001600160a01b0319831681179093556040519116919082907f8be0079c531659141344cd1fd0a4f28419497f9722a3daafe3b4186f6b6457e090600090a35050565b828054620000f890620002c7565b90600052602060002090601f0160209004810192826200011c576000855562000167565b82601f106200013757805160ff191683800117855562000167565b8280016001018555821562000167579182015b82811115620001675782518255916020019190600101906200014a565b506200017592915062000179565b5090565b5b808211156200017557600081556001016200017a565b634e487b7160e01b600052604160045260246000fd5b600082601f830112620001b857600080fd5b81516001600160401b0380821115620001d557620001d562000190565b604051601f8301601f19908116603f0116810190828211818310171562000200576200020062000190565b816040528381526020925086838588010111156200021d57600080fd5b600091505b8382101562000241578582018301518183018401529082019062000222565b83821115620002535760008385830101525b9695505050505050565b600080604083850312156200027157600080fd5b82516001600160401b03808211156200028957600080fd5b6200029786838701620001a6565b93506020850151915080821115620002ae57600080fd5b50620002bd85828601620001a6565b9150509250929050565b600181811c90821680620002dc57607f821691505b60208210811415620002fe57634e487b7160e01b600052602260045260246000fd5b50919050565b611fb180620003146000396000f3fe6080604052600436106101355760003560e01c806385831079116100ab578063a22cb4651161006f578063a22cb46514610367578063b88d4fde14610387578063bd6ede73146103a7578063c87b56dd146103bc578063e985e9c5146103dc578063f2fde38b1461042557600080fd5b806385831079146102d05780638da5cb5b146103015780639012c4a81461031f57806395d89b411461033f578063a03297471461035457600080fd5b806323b872dd116100fd57806323b872dd1461021857806324600fc31461023857806342842e0e1461024d5780636352211e1461026d57806370a082311461028d578063715018a6146102bb57600080fd5b806301ffc9a71461013a57806306fdde031461016f578063081812fc14610191578063095ea7b3146101c95780631e587cfb146101eb575b600080fd5b34801561014657600080fd5b5061015a610155366004611955565b610445565b60405190151581526020015b60405180910390f35b34801561017b57600080fd5b50610184610497565b60405161016691906119ca565b34801561019d57600080fd5b506101b16101ac3660046119dd565b610529565b6040516001600160a01b039091168152602001610166565b3480156101d557600080fd5b506101e96101e4366004611a12565b6105c3565b005b3480156101f757600080fd5b5061020b610206366004611a3c565b6106d9565b6040516101669190611a57565b34801561022457600080fd5b506101e9610233366004611af5565b6108d1565b34801561024457600080fd5b506101e9610902565b34801561025957600080fd5b506101e9610268366004611af5565b61097c565b34801561027957600080fd5b506101b16102883660046119dd565b610997565b34801561029957600080fd5b506102ad6102a8366004611a3c565b610a0e565b604051908152602001610166565b3480156102c757600080fd5b506101e9610a95565b3480156102dc57600080fd5b506102f06102eb3660046119dd565b610acb565b604051610166959493929190611b31565b34801561030d57600080fd5b506006546001600160a01b03166101b1565b34801561032b57600080fd5b506101e961033a3660046119dd565b610ba1565b34801561034b57600080fd5b50610184610bd0565b6101e9610362366004611bf7565b610bdf565b34801561037357600080fd5b506101e9610382366004611c40565b610c3c565b34801561039357600080fd5b506101e96103a2366004611c7c565b610c47565b3480156103b357600080fd5b5061020b610c7f565b3480156103c857600080fd5b506101846103d73660046119dd565b610da5565b3480156103e857600080fd5b5061015a6103f7366004611cf8565b6001600160a01b03918216600090815260056020908152604080832093909416825291909152205460ff1690565b34801561043157600080fd5b506101e9610440366004611a3c565b610e8d565b60006001600160e01b031982166380ac58cd60e01b148061047657506001600160e01b03198216635b5e139f60e01b145b8061049157506301ffc9a760e01b6001600160e01b03198316145b92915050565b6060600080546104a690611d2b565b80601f01602080910402602001604051908101604052809291908181526020018280546104d290611d2b565b801561051f5780601f106104f45761010080835404028352916020019161051f565b820191906000526020600020905b81548152906001019060200180831161050257829003601f168201915b5050505050905090565b6000818152600260205260408120546001600160a01b03166105a75760405162461bcd60e51b815260206004820152602c60248201527f4552433732313a20617070726f76656420717565727920666f72206e6f6e657860448201526b34b9ba32b73a103a37b5b2b760a11b60648201526084015b60405180910390fd5b506000908152600460205260409020546001600160a01b031690565b60006105ce82610997565b9050806001600160a01b0316836001600160a01b0316141561063c5760405162461bcd60e51b815260206004820152602160248201527f4552433732313a20617070726f76616c20746f2063757272656e74206f776e656044820152603960f91b606482015260840161059e565b336001600160a01b0382161480610658575061065881336103f7565b6106ca5760405162461bcd60e51b815260206004820152603860248201527f4552433732313a20617070726f76652063616c6c6572206973206e6f74206f7760448201527f6e6572206e6f7220617070726f76656420666f7220616c6c0000000000000000606482015260840161059e565b6106d48383610f25565b505050565b606060006106e683610a0e565b67ffffffffffffffff8111156106fe576106fe611b6b565b60405190808252806020026020018201604052801561076757816020015b6107546040518060a00160405280606081526020016000815260200160008152602001600060ff168152602001600060ff1681525090565b81526020019060019003908161071c5790505b5090506000805b6009548110156108c857846001600160a01b031661078b82610997565b6001600160a01b031614156108b657600981815481106107ad576107ad611d66565b90600052602060002090600402016040518060a00160405290816000820180546107d690611d2b565b80601f016020809104026020016040519081016040528092919081815260200182805461080290611d2b565b801561084f5780601f106108245761010080835404028352916020019161084f565b820191906000526020600020905b81548152906001019060200180831161083257829003601f168201915b5050509183525050600182015460208201526002820154604082015260039091015460ff808216606084015261010090910416608090910152835184908490811061089c5761089c611d66565b602002602001018190525081806108b290611d92565b9250505b806108c081611d92565b91505061076e565b50909392505050565b6108db3382610f93565b6108f75760405162461bcd60e51b815260040161059e90611dad565b6106d483838361108a565b6006546001600160a01b0316331461092c5760405162461bcd60e51b815260040161059e90611dfe565b60006109406006546001600160a01b031690565b6040519091506001600160a01b038216904780156108fc02916000818181858888f19350505050158015610978573d6000803e3d6000fd5b5050565b6106d483838360405180602001604052806000815250610c47565b6000818152600260205260408120546001600160a01b0316806104915760405162461bcd60e51b815260206004820152602960248201527f4552433732313a206f776e657220717565727920666f72206e6f6e657869737460448201526832b73a103a37b5b2b760b91b606482015260840161059e565b60006001600160a01b038216610a795760405162461bcd60e51b815260206004820152602a60248201527f4552433732313a2062616c616e636520717565727920666f7220746865207a65604482015269726f206164647265737360b01b606482015260840161059e565b506001600160a01b031660009081526003602052604090205490565b6006546001600160a01b03163314610abf5760405162461bcd60e51b815260040161059e90611dfe565b610ac9600061122a565b565b60098181548110610adb57600080fd5b9060005260206000209060040201600091509050806000018054610afe90611d2b565b80601f0160208091040260200160405190810160405280929190818152602001828054610b2a90611d2b565b8015610b775780601f10610b4c57610100808354040283529160200191610b77565b820191906000526020600020905b815481529060010190602001808311610b5a57829003601f168201915b50505050600183015460028401546003909401549293909290915060ff8082169161010090041685565b6006546001600160a01b03163314610bcb5760405162461bcd60e51b815260040161059e90611dfe565b600855565b6060600180546104a690611d2b565b6008543414610c305760405162461bcd60e51b815260206004820152601760248201527f54686520666565206973206e6f7420636f72726563742e000000000000000000604482015260640161059e565b610c398161127c565b50565b6109783383836113c4565b610c513383610f93565b610c6d5760405162461bcd60e51b815260040161059e90611dad565b610c7984848484611493565b50505050565b60606009805480602002602001604051908101604052809291908181526020016000905b82821015610d9c57838290600052602060002090600402016040518060a0016040529081600082018054610cd690611d2b565b80601f0160208091040260200160405190810160405280929190818152602001828054610d0290611d2b565b8015610d4f5780601f10610d2457610100808354040283529160200191610d4f565b820191906000526020600020905b815481529060010190602001808311610d3257829003601f168201915b50505091835250506001828101546020808401919091526002840154604084015260039093015460ff80821660608501526101009091041660809092019190915291835292019101610ca3565b50505050905090565b6000818152600260205260409020546060906001600160a01b0316610e245760405162461bcd60e51b815260206004820152602f60248201527f4552433732314d657461646174613a2055524920717565727920666f72206e6f60448201526e3732bc34b9ba32b73a103a37b5b2b760891b606482015260840161059e565b6000610e3b60408051602081019091526000815290565b90506000815111610e5b5760405180602001604052806000815250610e86565b80610e65846114c6565b604051602001610e76929190611e33565b6040516020818303038152906040525b9392505050565b6006546001600160a01b03163314610eb75760405162461bcd60e51b815260040161059e90611dfe565b6001600160a01b038116610f1c5760405162461bcd60e51b815260206004820152602660248201527f4f776e61626c653a206e6577206f776e657220697320746865207a65726f206160448201526564647265737360d01b606482015260840161059e565b610c398161122a565b600081815260046020526040902080546001600160a01b0319166001600160a01b0384169081179091558190610f5a82610997565b6001600160a01b03167f8c5be1e5ebec7d5bd14f71427d1e84f3dd0314c0f7b2291e5b200ac8c7c3b92560405160405180910390a45050565b6000818152600260205260408120546001600160a01b031661100c5760405162461bcd60e51b815260206004820152602c60248201527f4552433732313a206f70657261746f7220717565727920666f72206e6f6e657860448201526b34b9ba32b73a103a37b5b2b760a11b606482015260840161059e565b600061101783610997565b9050806001600160a01b0316846001600160a01b031614806110525750836001600160a01b031661104784610529565b6001600160a01b0316145b8061108257506001600160a01b0380821660009081526005602090815260408083209388168352929052205460ff165b949350505050565b826001600160a01b031661109d82610997565b6001600160a01b0316146111055760405162461bcd60e51b815260206004820152602960248201527f4552433732313a207472616e73666572206f6620746f6b656e2074686174206960448201526839903737ba1037bbb760b91b606482015260840161059e565b6001600160a01b0382166111675760405162461bcd60e51b8152602060048201526024808201527f4552433732313a207472616e7366657220746f20746865207a65726f206164646044820152637265737360e01b606482015260840161059e565b611172600082610f25565b6001600160a01b038316600090815260036020526040812080546001929061119b908490611e62565b90915550506001600160a01b03821660009081526003602052604081208054600192906111c9908490611e79565b909155505060008181526002602052604080822080546001600160a01b0319166001600160a01b0386811691821790925591518493918716917fddf252ad1be2c89b69c2b068fc378daa952ba7f163c4a11628f55a4df523b3ef91a4505050565b600680546001600160a01b038381166001600160a01b0319831681179093556040519116919082907f8be0079c531659141344cd1fd0a4f28419497f9722a3daafe3b4186f6b6457e090600090a35050565b600061128e662386f26fc100006115c4565b9050600061129c60646115c4565b6040805160a08101825285815260075460208083019190915291810185905260016060820181905260ff84166080830152600980549182018155600052815180519495509193849360049092027f6e1540171b6c0c960b71a7020d9f60077f6af931a8bbf590da0223dacf75c7af019261131a9284929101906118a6565b50602082015160018201556040820151600282015560608201516003909101805460809093015160ff9081166101000261ffff1990941692169190911791909117905560075461136b903390611619565b600754604080519182526020820185905233917fe6fa9115bb47e922f553f5e6b74bbca4f98acd15907a08c4f17e0562f7b3ec05910160405180910390a2600780549060006113b983611d92565b919050555050505050565b816001600160a01b0316836001600160a01b031614156114265760405162461bcd60e51b815260206004820152601960248201527f4552433732313a20617070726f766520746f2063616c6c657200000000000000604482015260640161059e565b6001600160a01b03838116600081815260056020908152604080832094871680845294825291829020805460ff191686151590811790915591519182527f17307eab39ab6107e8899845ad3d59bd9653f200f220920489ca2b5937696c31910160405180910390a3505050565b61149e84848461108a565b6114aa84848484611633565b610c795760405162461bcd60e51b815260040161059e90611e91565b6060816114ea5750506040805180820190915260018152600360fc1b602082015290565b8160005b811561151457806114fe81611d92565b915061150d9050600a83611ef9565b91506114ee565b60008167ffffffffffffffff81111561152f5761152f611b6b565b6040519080825280601f01601f191660200182016040528015611559576020820181803683370190505b5090505b84156110825761156e600183611e62565b915061157b600a86611f0d565b611586906030611e79565b60f81b81838151811061159b5761159b611d66565b60200101906001600160f81b031916908160001a9053506115bd600a86611ef9565b945061155d565b60008042336040516020016115f592919091825260601b6bffffffffffffffffffffffff1916602082015260340190565b60408051601f1981840301815291905280516020909101209050610e868382611f0d565b610978828260405180602001604052806000815250611731565b60006001600160a01b0384163b1561172657604051630a85bd0160e11b81526001600160a01b0385169063150b7a0290611677903390899088908890600401611f21565b6020604051808303816000875af19250505080156116b2575060408051601f3d908101601f191682019092526116af91810190611f5e565b60015b61170c573d8080156116e0576040519150601f19603f3d011682016040523d82523d6000602084013e6116e5565b606091505b5080516117045760405162461bcd60e51b815260040161059e90611e91565b805181602001fd5b6001600160e01b031916630a85bd0160e11b149050611082565b506001949350505050565b61173b8383611764565b6117486000848484611633565b6106d45760405162461bcd60e51b815260040161059e90611e91565b6001600160a01b0382166117ba5760405162461bcd60e51b815260206004820181905260248201527f4552433732313a206d696e7420746f20746865207a65726f2061646472657373604482015260640161059e565b6000818152600260205260409020546001600160a01b03161561181f5760405162461bcd60e51b815260206004820152601c60248201527f4552433732313a20746f6b656e20616c7265616479206d696e74656400000000604482015260640161059e565b6001600160a01b0382166000908152600360205260408120805460019290611848908490611e79565b909155505060008181526002602052604080822080546001600160a01b0319166001600160a01b03861690811790915590518392907fddf252ad1be2c89b69c2b068fc378daa952ba7f163c4a11628f55a4df523b3ef908290a45050565b8280546118b290611d2b565b90600052602060002090601f0160209004810192826118d4576000855561191a565b82601f106118ed57805160ff191683800117855561191a565b8280016001018555821561191a579182015b8281111561191a5782518255916020019190600101906118ff565b5061192692915061192a565b5090565b5b80821115611926576000815560010161192b565b6001600160e01b031981168114610c3957600080fd5b60006020828403121561196757600080fd5b8135610e868161193f565b60005b8381101561198d578181015183820152602001611975565b83811115610c795750506000910152565b600081518084526119b6816020860160208601611972565b601f01601f19169290920160200192915050565b602081526000610e86602083018461199e565b6000602082840312156119ef57600080fd5b5035919050565b80356001600160a01b0381168114611a0d57600080fd5b919050565b60008060408385031215611a2557600080fd5b611a2e836119f6565b946020939093013593505050565b600060208284031215611a4e57600080fd5b610e86826119f6565b60006020808301818452808551808352604092508286019150828160051b87010184880160005b83811015611ae757603f19898403018552815160a08151818652611aa48287018261199e565b838b0151878c0152898401518a88015260608085015160ff9081169189019190915260809485015116939096019290925250509386019390860190600101611a7e565b509098975050505050505050565b600080600060608486031215611b0a57600080fd5b611b13846119f6565b9250611b21602085016119f6565b9150604084013590509250925092565b60a081526000611b4460a083018861199e565b602083019690965250604081019390935260ff918216606084015216608090910152919050565b634e487b7160e01b600052604160045260246000fd5b600067ffffffffffffffff80841115611b9c57611b9c611b6b565b604051601f8501601f19908116603f01168101908282118183101715611bc457611bc4611b6b565b81604052809350858152868686011115611bdd57600080fd5b858560208301376000602087830101525050509392505050565b600060208284031215611c0957600080fd5b813567ffffffffffffffff811115611c2057600080fd5b8201601f81018413611c3157600080fd5b61108284823560208401611b81565b60008060408385031215611c5357600080fd5b611c5c836119f6565b915060208301358015158114611c7157600080fd5b809150509250929050565b60008060008060808587031215611c9257600080fd5b611c9b856119f6565b9350611ca9602086016119f6565b925060408501359150606085013567ffffffffffffffff811115611ccc57600080fd5b8501601f81018713611cdd57600080fd5b611cec87823560208401611b81565b91505092959194509250565b60008060408385031215611d0b57600080fd5b611d14836119f6565b9150611d22602084016119f6565b90509250929050565b600181811c90821680611d3f57607f821691505b60208210811415611d6057634e487b7160e01b600052602260045260246000fd5b50919050565b634e487b7160e01b600052603260045260246000fd5b634e487b7160e01b600052601160045260246000fd5b6000600019821415611da657611da6611d7c565b5060010190565b60208082526031908201527f4552433732313a207472616e736665722063616c6c6572206973206e6f74206f6040820152701ddb995c881b9bdc88185c1c1c9bdd9959607a1b606082015260800190565b6020808252818101527f4f776e61626c653a2063616c6c6572206973206e6f7420746865206f776e6572604082015260600190565b60008351611e45818460208801611972565b835190830190611e59818360208801611972565b01949350505050565b600082821015611e7457611e74611d7c565b500390565b60008219821115611e8c57611e8c611d7c565b500190565b60208082526032908201527f4552433732313a207472616e7366657220746f206e6f6e20455243373231526560408201527131b2b4bb32b91034b6b83632b6b2b73a32b960711b606082015260800190565b634e487b7160e01b600052601260045260246000fd5b600082611f0857611f08611ee3565b500490565b600082611f1c57611f1c611ee3565b500690565b6001600160a01b0385811682528416602082015260408101839052608060608201819052600090611f549083018461199e565b9695505050505050565b600060208284031215611f7057600080fd5b8151610e868161193f56fea2646970667358221220e90c1f6b369ce771a379c72173ed69d7028c9f293f83ff38afdca63206c83f5f64736f6c634300080a0033",
  "immutableReferences": {},
  "source": "// SPDX-License-Identifier: MIT\n\npragma solidity ^0.8.0;\n\nimport \"@openzeppelin/contracts/token/ERC721/ERC721.sol\";\nimport \"@openzeppelin/contracts/access/Ownable.sol\";\n\ncontract PokeToken is ERC721, Ownable {\n    constructor(string memory _name, string memory _symbol)\n        ERC721(_name, _symbol)\n    {}\n\n    uint256 COUNTER;\n\n    uint256 fee = 1 ether;\n\n    struct Pokemon {\n        string name;\n        uint256 id;\n        uint256 dna;\n        uint8 level;\n        uint8 rarity;\n    }\n\n    Pokemon[] public pokemons;\n\n    event NewPokemon(address indexed owner, uint256 id, uint256 dna);\n\n    // Helpers\n    function _createRandomNumber(uint256 _mod) internal view returns(uint256) {\n        uint256 randomNumber = uint256(keccak256(abi.encodePacked(block.timestamp, msg.sender)));\n        return randomNumber % _mod;\n    }\n\n    function updateFee(uint256 _fee) external onlyOwner {\n        fee = _fee;\n    }\n\n    function withdrawFunds() external onlyOwner() {\n        address _owner = owner();\n        payable(_owner).transfer(address(this).balance);\n    }\n\n\n    // Creation\n    function _createPokemon(string memory _name) internal {\n        uint256 randomDna = _createRandomNumber(10**16);\n        uint8 randomRarity = uint8(_createRandomNumber(100));\n        Pokemon memory newPokemon = Pokemon(_name, COUNTER, randomDna, 1, randomRarity);\n        pokemons.push(newPokemon);\n        _safeMint(msg.sender, COUNTER);\n        emit NewPokemon(msg.sender, COUNTER, randomDna);\n        COUNTER++;\n    }\n\n    function createRandomPokemon(string memory _name) public payable {\n        require(msg.value == fee, \"The fee is not correct.\");\n        _createPokemon(_name);\n    }\n\n    // Getters\n    function getPokemons() public view returns(Pokemon[] memory) {\n        return pokemons;\n    }\n\n    function getOwnerPokemons(address _owner) public view returns(Pokemon[] memory) {\n        Pokemon[] memory result = new Pokemon[](balanceOf(_owner));\n        uint256 counter = 0;\n        for (uint256 i = 0; i < pokemons.length; i++) {\n            if (ownerOf(i) == _owner) {\n                result[counter] = pokemons[i];\n                counter++;\n            }\n        }\n        return result;\n    }\n}",
  "sourcePath": "/home/vienio99/PycharmProjects/poke-nft/contracts/PokeToken.sol",
  "compiler": {
    "name": "solc",
    "version": "0.8.10+commit.fc410830.Emscripten.clang"
  },
  "schemaVersion": "3.4.3",
  "updatedAt": "2021-12-29T10:49:38.338Z",
  "networkType": "ethereum",
  "devdoc": {
    "kind": "dev",
    "methods": {
      "approve(address,uint256)": {
        "details": "See {IERC721-approve}."
      },
      "balanceOf(address)": {
        "details": "See {IERC721-balanceOf}."
      },
      "getApproved(uint256)": {
        "details": "See {IERC721-getApproved}."
      },
      "isApprovedForAll(address,address)": {
        "details": "See {IERC721-isApprovedForAll}."
      },
      "name()": {
        "details": "See {IERC721Metadata-name}."
      },
      "owner()": {
        "details": "Returns the address of the current owner."
      },
      "ownerOf(uint256)": {
        "details": "See {IERC721-ownerOf}."
      },
      "renounceOwnership()": {
        "details": "Leaves the contract without owner. It will not be possible to call `onlyOwner` functions anymore. Can only be called by the current owner. NOTE: Renouncing ownership will leave the contract without an owner, thereby removing any functionality that is only available to the owner."
      },
      "safeTransferFrom(address,address,uint256)": {
        "details": "See {IERC721-safeTransferFrom}."
      },
      "safeTransferFrom(address,address,uint256,bytes)": {
        "details": "See {IERC721-safeTransferFrom}."
      },
      "setApprovalForAll(address,bool)": {
        "details": "See {IERC721-setApprovalForAll}."
      },
      "supportsInterface(bytes4)": {
        "details": "See {IERC165-supportsInterface}."
      },
      "symbol()": {
        "details": "See {IERC721Metadata-symbol}."
      },
      "tokenURI(uint256)": {
        "details": "See {IERC721Metadata-tokenURI}."
      },
      "transferFrom(address,address,uint256)": {
        "details": "See {IERC721-transferFrom}."
      },
      "transferOwnership(address)": {
        "details": "Transfers ownership of the contract to a new account (`newOwner`). Can only be called by the current owner."
      }
    },
    "version": 1
  },
  "userdoc": {
    "kind": "user",
    "methods": {},
    "version": 1
  }
}