{
  "contractName": "PokeToken",
  "abi": [
    {
      "inputs": [
        {
          "internalType": "string",
          "name": "_name",
          "type": "string"
        },
        {
          "internalType": "string",
          "name": "_symbol",
          "type": "string"
        }
      ],
      "stateMutability": "nonpayable",
      "type": "constructor"
    },
    {
      "anonymous": false,
      "inputs": [
        {
          "indexed": true,
          "internalType": "address",
          "name": "owner",
          "type": "address"
        },
        {
          "indexed": true,
          "internalType": "address",
          "name": "approved",
          "type": "address"
        },
        {
          "indexed": true,
          "internalType": "uint256",
          "name": "tokenId",
          "type": "uint256"
        }
      ],
      "name": "Approval",
      "type": "event"
    },
    {
      "anonymous": false,
      "inputs": [
        {
          "indexed": true,
          "internalType": "address",
          "name": "owner",
          "type": "address"
        },
        {
          "indexed": true,
          "internalType": "address",
          "name": "operator",
          "type": "address"
        },
        {
          "indexed": false,
          "internalType": "bool",
          "name": "approved",
          "type": "bool"
        }
      ],
      "name": "ApprovalForAll",
      "type": "event"
    },
    {
      "anonymous": false,
      "inputs": [
        {
          "indexed": true,
          "internalType": "address",
          "name": "owner",
          "type": "address"
        },
        {
          "indexed": false,
          "internalType": "uint256",
          "name": "id",
          "type": "uint256"
        },
        {
          "indexed": false,
          "internalType": "uint256",
          "name": "dna",
          "type": "uint256"
        }
      ],
      "name": "NewPokemon",
      "type": "event"
    },
    {
      "anonymous": false,
      "inputs": [
        {
          "indexed": true,
          "internalType": "address",
          "name": "previousOwner",
          "type": "address"
        },
        {
          "indexed": true,
          "internalType": "address",
          "name": "newOwner",
          "type": "address"
        }
      ],
      "name": "OwnershipTransferred",
      "type": "event"
    },
    {
      "anonymous": false,
      "inputs": [
        {
          "indexed": true,
          "internalType": "address",
          "name": "from",
          "type": "address"
        },
        {
          "indexed": true,
          "internalType": "address",
          "name": "to",
          "type": "address"
        },
        {
          "indexed": true,
          "internalType": "uint256",
          "name": "tokenId",
          "type": "uint256"
        }
      ],
      "name": "Transfer",
      "type": "event"
    },
    {
      "inputs": [
        {
          "internalType": "address",
          "name": "to",
          "type": "address"
        },
        {
          "internalType": "uint256",
          "name": "tokenId",
          "type": "uint256"
        }
      ],
      "name": "approve",
      "outputs": [],
      "stateMutability": "nonpayable",
      "type": "function"
    },
    {
      "inputs": [
        {
          "internalType": "address",
          "name": "owner",
          "type": "address"
        }
      ],
      "name": "balanceOf",
      "outputs": [
        {
          "internalType": "uint256",
          "name": "",
          "type": "uint256"
        }
      ],
      "stateMutability": "view",
      "type": "function",
      "constant": true
    },
    {
      "inputs": [
        {
          "internalType": "uint256",
          "name": "tokenId",
          "type": "uint256"
        }
      ],
      "name": "getApproved",
      "outputs": [
        {
          "internalType": "address",
          "name": "",
          "type": "address"
        }
      ],
      "stateMutability": "view",
      "type": "function",
      "constant": true
    },
    {
      "inputs": [
        {
          "internalType": "address",
          "name": "owner",
          "type": "address"
        },
        {
          "internalType": "address",
          "name": "operator",
          "type": "address"
        }
      ],
      "name": "isApprovedForAll",
      "outputs": [
        {
          "internalType": "bool",
          "name": "",
          "type": "bool"
        }
      ],
      "stateMutability": "view",
      "type": "function",
      "constant": true
    },
    {
      "inputs": [],
      "name": "name",
      "outputs": [
        {
          "internalType": "string",
          "name": "",
          "type": "string"
        }
      ],
      "stateMutability": "view",
      "type": "function",
      "constant": true
    },
    {
      "inputs": [],
      "name": "owner",
      "outputs": [
        {
          "internalType": "address",
          "name": "",
          "type": "address"
        }
      ],
      "stateMutability": "view",
      "type": "function",
      "constant": true
    },
    {
      "inputs": [
        {
          "internalType": "uint256",
          "name": "tokenId",
          "type": "uint256"
        }
      ],
      "name": "ownerOf",
      "outputs": [
        {
          "internalType": "address",
          "name": "",
          "type": "address"
        }
      ],
      "stateMutability": "view",
      "type": "function",
      "constant": true
    },
    {
      "inputs": [
        {
          "internalType": "uint256",
          "name": "",
          "type": "uint256"
        }
      ],
      "name": "pokemons",
      "outputs": [
        {
          "internalType": "string",
          "name": "name",
          "type": "string"
        },
        {
          "internalType": "uint256",
          "name": "id",
          "type": "uint256"
        },
        {
          "internalType": "uint256",
          "name": "dna",
          "type": "uint256"
        },
        {
          "internalType": "uint8",
          "name": "level",
          "type": "uint8"
        },
        {
          "internalType": "uint8",
          "name": "rarity",
          "type": "uint8"
        }
      ],
      "stateMutability": "view",
      "type": "function",
      "constant": true
    },
    {
      "inputs": [],
      "name": "renounceOwnership",
      "outputs": [],
      "stateMutability": "nonpayable",
      "type": "function"
    },
    {
      "inputs": [
        {
          "internalType": "address",
          "name": "from",
          "type": "address"
        },
        {
          "internalType": "address",
          "name": "to",
          "type": "address"
        },
        {
          "internalType": "uint256",
          "name": "tokenId",
          "type": "uint256"
        }
      ],
      "name": "safeTransferFrom",
      "outputs": [],
      "stateMutability": "nonpayable",
      "type": "function"
    },
    {
      "inputs": [
        {
          "internalType": "address",
          "name": "from",
          "type": "address"
        },
        {
          "internalType": "address",
          "name": "to",
          "type": "address"
        },
        {
          "internalType": "uint256",
          "name": "tokenId",
          "type": "uint256"
        },
        {
          "internalType": "bytes",
          "name": "_data",
          "type": "bytes"
        }
      ],
      "name": "safeTransferFrom",
      "outputs": [],
      "stateMutability": "nonpayable",
      "type": "function"
    },
    {
      "inputs": [
        {
          "internalType": "address",
          "name": "operator",
          "type": "address"
        },
        {
          "internalType": "bool",
          "name": "approved",
          "type": "bool"
        }
      ],
      "name": "setApprovalForAll",
      "outputs": [],
      "stateMutability": "nonpayable",
      "type": "function"
    },
    {
      "inputs": [
        {
          "internalType": "bytes4",
          "name": "interfaceId",
          "type": "bytes4"
        }
      ],
      "name": "supportsInterface",
      "outputs": [
        {
          "internalType": "bool",
          "name": "",
          "type": "bool"
        }
      ],
      "stateMutability": "view",
      "type": "function",
      "constant": true
    },
    {
      "inputs": [],
      "name": "symbol",
      "outputs": [
        {
          "internalType": "string",
          "name": "",
          "type": "string"
        }
      ],
      "stateMutability": "view",
      "type": "function",
      "constant": true
    },
    {
      "inputs": [
        {
          "internalType": "uint256",
          "name": "tokenId",
          "type": "uint256"
        }
      ],
      "name": "tokenURI",
      "outputs": [
        {
          "internalType": "string",
          "name": "",
          "type": "string"
        }
      ],
      "stateMutability": "view",
      "type": "function",
      "constant": true
    },
    {
      "inputs": [
        {
          "internalType": "address",
          "name": "from",
          "type": "address"
        },
        {
          "internalType": "address",
          "name": "to",
          "type": "address"
        },
        {
          "internalType": "uint256",
          "name": "tokenId",
          "type": "uint256"
        }
      ],
      "name": "transferFrom",
      "outputs": [],
      "stateMutability": "nonpayable",
      "type": "function"
    },
    {
      "inputs": [
        {
          "internalType": "address",
          "name": "newOwner",
          "type": "address"
        }
      ],
      "name": "transferOwnership",
      "outputs": [],
      "stateMutability": "nonpayable",
      "type": "function"
    },
    {
      "inputs": [
        {
          "internalType": "uint256",
          "name": "_fee",
          "type": "uint256"
        }
      ],
      "name": "updateFee",
      "outputs": [],
      "stateMutability": "nonpayable",
      "type": "function"
    },
    {
      "inputs": [],
      "name": "withdrawFunds",
      "outputs": [],
      "stateMutability": "nonpayable",
      "type": "function"
    },
    {
      "inputs": [
        {
          "internalType": "string",
          "name": "_name",
          "type": "string"
        }
      ],
      "name": "createRandomPokemon",
      "outputs": [],
      "stateMutability": "payable",
      "type": "function",
      "payable": true
    },
    {
      "inputs": [],
      "name": "getPokemons",
      "outputs": [
        {
          "components": [
            {
              "internalType": "string",
              "name": "name",
              "type": "string"
            },
            {
              "internalType": "uint256",
              "name": "id",
              "type": "uint256"
            },
            {
              "internalType": "uint256",
              "name": "dna",
              "type": "uint256"
            },
            {
              "internalType": "uint8",
              "name": "level",
              "type": "uint8"
            },
            {
              "internalType": "uint8",
              "name": "rarity",
              "type": "uint8"
            }
          ],
          "internalType": "struct PokeToken.Pokemon[]",
          "name": "",
          "type": "tuple[]"
        }
      ],
      "stateMutability": "view",
      "type": "function",
      "constant": true
    }
  ],
  "bytecode": "0x6080604052670de0b6b3a76400006008553480156200001d57600080fd5b50604051620020a2380380620020a283398101604081905262000040916200025d565b81518290829062000059906000906020850190620000ea565b5080516200006f906001906020840190620000ea565b5050506200008c620000866200009460201b60201c565b62000098565b505062000304565b3390565b600680546001600160a01b038381166001600160a01b0319831681179093556040519116919082907f8be0079c531659141344cd1fd0a4f28419497f9722a3daafe3b4186f6b6457e090600090a35050565b828054620000f890620002c7565b90600052602060002090601f0160209004810192826200011c576000855562000167565b82601f106200013757805160ff191683800117855562000167565b8280016001018555821562000167579182015b82811115620001675782518255916020019190600101906200014a565b506200017592915062000179565b5090565b5b808211156200017557600081556001016200017a565b634e487b7160e01b600052604160045260246000fd5b600082601f830112620001b857600080fd5b81516001600160401b0380821115620001d557620001d562000190565b604051601f8301601f19908116603f0116810190828211818310171562000200576200020062000190565b816040528381526020925086838588010111156200021d57600080fd5b600091505b8382101562000241578582018301518183018401529082019062000222565b83821115620002535760008385830101525b9695505050505050565b600080604083850312156200027157600080fd5b82516001600160401b03808211156200028957600080fd5b6200029786838701620001a6565b93506020850151915080821115620002ae57600080fd5b50620002bd85828601620001a6565b9150509250929050565b600181811c90821680620002dc57607f821691505b60208210811415620002fe57634e487b7160e01b600052602260045260246000fd5b50919050565b611d8e80620003146000396000f3fe60806040526004361061012a5760003560e01c806385831079116100ab578063a22cb4651161006f578063a22cb4651461032f578063b88d4fde1461034f578063bd6ede731461036f578063c87b56dd14610391578063e985e9c5146103b1578063f2fde38b146103fa57600080fd5b806385831079146102985780638da5cb5b146102c95780639012c4a8146102e757806395d89b4114610307578063a03297471461031c57600080fd5b806324600fc3116100f257806324600fc31461020057806342842e0e146102155780636352211e1461023557806370a0823114610255578063715018a61461028357600080fd5b806301ffc9a71461012f57806306fdde0314610164578063081812fc14610186578063095ea7b3146101be57806323b872dd146101e0575b600080fd5b34801561013b57600080fd5b5061014f61014a366004611732565b61041a565b60405190151581526020015b60405180910390f35b34801561017057600080fd5b5061017961046c565b60405161015b91906117a7565b34801561019257600080fd5b506101a66101a13660046117ba565b6104fe565b6040516001600160a01b03909116815260200161015b565b3480156101ca57600080fd5b506101de6101d93660046117ef565b610598565b005b3480156101ec57600080fd5b506101de6101fb366004611819565b6106ae565b34801561020c57600080fd5b506101de6106df565b34801561022157600080fd5b506101de610230366004611819565b610759565b34801561024157600080fd5b506101a66102503660046117ba565b610774565b34801561026157600080fd5b50610275610270366004611855565b6107eb565b60405190815260200161015b565b34801561028f57600080fd5b506101de610872565b3480156102a457600080fd5b506102b86102b33660046117ba565b6108a8565b60405161015b959493929190611870565b3480156102d557600080fd5b506006546001600160a01b03166101a6565b3480156102f357600080fd5b506101de6103023660046117ba565b61097e565b34801561031357600080fd5b506101796109ad565b6101de61032a366004611936565b6109bc565b34801561033b57600080fd5b506101de61034a36600461197f565b610a19565b34801561035b57600080fd5b506101de61036a3660046119bb565b610a24565b34801561037b57600080fd5b50610384610a5c565b60405161015b9190611a37565b34801561039d57600080fd5b506101796103ac3660046117ba565b610b82565b3480156103bd57600080fd5b5061014f6103cc366004611ad5565b6001600160a01b03918216600090815260056020908152604080832093909416825291909152205460ff1690565b34801561040657600080fd5b506101de610415366004611855565b610c6a565b60006001600160e01b031982166380ac58cd60e01b148061044b57506001600160e01b03198216635b5e139f60e01b145b8061046657506301ffc9a760e01b6001600160e01b03198316145b92915050565b60606000805461047b90611b08565b80601f01602080910402602001604051908101604052809291908181526020018280546104a790611b08565b80156104f45780601f106104c9576101008083540402835291602001916104f4565b820191906000526020600020905b8154815290600101906020018083116104d757829003601f168201915b5050505050905090565b6000818152600260205260408120546001600160a01b031661057c5760405162461bcd60e51b815260206004820152602c60248201527f4552433732313a20617070726f76656420717565727920666f72206e6f6e657860448201526b34b9ba32b73a103a37b5b2b760a11b60648201526084015b60405180910390fd5b506000908152600460205260409020546001600160a01b031690565b60006105a382610774565b9050806001600160a01b0316836001600160a01b031614156106115760405162461bcd60e51b815260206004820152602160248201527f4552433732313a20617070726f76616c20746f2063757272656e74206f776e656044820152603960f91b6064820152608401610573565b336001600160a01b038216148061062d575061062d81336103cc565b61069f5760405162461bcd60e51b815260206004820152603860248201527f4552433732313a20617070726f76652063616c6c6572206973206e6f74206f7760448201527f6e6572206e6f7220617070726f76656420666f7220616c6c00000000000000006064820152608401610573565b6106a98383610d02565b505050565b6106b83382610d70565b6106d45760405162461bcd60e51b815260040161057390611b43565b6106a9838383610e67565b6006546001600160a01b031633146107095760405162461bcd60e51b815260040161057390611b94565b600061071d6006546001600160a01b031690565b6040519091506001600160a01b038216904780156108fc02916000818181858888f19350505050158015610755573d6000803e3d6000fd5b5050565b6106a983838360405180602001604052806000815250610a24565b6000818152600260205260408120546001600160a01b0316806104665760405162461bcd60e51b815260206004820152602960248201527f4552433732313a206f776e657220717565727920666f72206e6f6e657869737460448201526832b73a103a37b5b2b760b91b6064820152608401610573565b60006001600160a01b0382166108565760405162461bcd60e51b815260206004820152602a60248201527f4552433732313a2062616c616e636520717565727920666f7220746865207a65604482015269726f206164647265737360b01b6064820152608401610573565b506001600160a01b031660009081526003602052604090205490565b6006546001600160a01b0316331461089c5760405162461bcd60e51b815260040161057390611b94565b6108a66000611007565b565b600981815481106108b857600080fd5b90600052602060002090600402016000915090508060000180546108db90611b08565b80601f016020809104026020016040519081016040528092919081815260200182805461090790611b08565b80156109545780601f1061092957610100808354040283529160200191610954565b820191906000526020600020905b81548152906001019060200180831161093757829003601f168201915b50505050600183015460028401546003909401549293909290915060ff8082169161010090041685565b6006546001600160a01b031633146109a85760405162461bcd60e51b815260040161057390611b94565b600855565b60606001805461047b90611b08565b6008543414610a0d5760405162461bcd60e51b815260206004820152601760248201527f54686520666565206973206e6f7420636f72726563742e0000000000000000006044820152606401610573565b610a1681611059565b50565b6107553383836111a1565b610a2e3383610d70565b610a4a5760405162461bcd60e51b815260040161057390611b43565b610a5684848484611270565b50505050565b60606009805480602002602001604051908101604052809291908181526020016000905b82821015610b7957838290600052602060002090600402016040518060a0016040529081600082018054610ab390611b08565b80601f0160208091040260200160405190810160405280929190818152602001828054610adf90611b08565b8015610b2c5780601f10610b0157610100808354040283529160200191610b2c565b820191906000526020600020905b815481529060010190602001808311610b0f57829003601f168201915b50505091835250506001828101546020808401919091526002840154604084015260039093015460ff80821660608501526101009091041660809092019190915291835292019101610a80565b50505050905090565b6000818152600260205260409020546060906001600160a01b0316610c015760405162461bcd60e51b815260206004820152602f60248201527f4552433732314d657461646174613a2055524920717565727920666f72206e6f60448201526e3732bc34b9ba32b73a103a37b5b2b760891b6064820152608401610573565b6000610c1860408051602081019091526000815290565b90506000815111610c385760405180602001604052806000815250610c63565b80610c42846112a3565b604051602001610c53929190611bc9565b6040516020818303038152906040525b9392505050565b6006546001600160a01b03163314610c945760405162461bcd60e51b815260040161057390611b94565b6001600160a01b038116610cf95760405162461bcd60e51b815260206004820152602660248201527f4f776e61626c653a206e6577206f776e657220697320746865207a65726f206160448201526564647265737360d01b6064820152608401610573565b610a1681611007565b600081815260046020526040902080546001600160a01b0319166001600160a01b0384169081179091558190610d3782610774565b6001600160a01b03167f8c5be1e5ebec7d5bd14f71427d1e84f3dd0314c0f7b2291e5b200ac8c7c3b92560405160405180910390a45050565b6000818152600260205260408120546001600160a01b0316610de95760405162461bcd60e51b815260206004820152602c60248201527f4552433732313a206f70657261746f7220717565727920666f72206e6f6e657860448201526b34b9ba32b73a103a37b5b2b760a11b6064820152608401610573565b6000610df483610774565b9050806001600160a01b0316846001600160a01b03161480610e2f5750836001600160a01b0316610e24846104fe565b6001600160a01b0316145b80610e5f57506001600160a01b0380821660009081526005602090815260408083209388168352929052205460ff165b949350505050565b826001600160a01b0316610e7a82610774565b6001600160a01b031614610ee25760405162461bcd60e51b815260206004820152602960248201527f4552433732313a207472616e73666572206f6620746f6b656e2074686174206960448201526839903737ba1037bbb760b91b6064820152608401610573565b6001600160a01b038216610f445760405162461bcd60e51b8152602060048201526024808201527f4552433732313a207472616e7366657220746f20746865207a65726f206164646044820152637265737360e01b6064820152608401610573565b610f4f600082610d02565b6001600160a01b0383166000908152600360205260408120805460019290610f78908490611c0e565b90915550506001600160a01b0382166000908152600360205260408120805460019290610fa6908490611c25565b909155505060008181526002602052604080822080546001600160a01b0319166001600160a01b0386811691821790925591518493918716917fddf252ad1be2c89b69c2b068fc378daa952ba7f163c4a11628f55a4df523b3ef91a4505050565b600680546001600160a01b038381166001600160a01b0319831681179093556040519116919082907f8be0079c531659141344cd1fd0a4f28419497f9722a3daafe3b4186f6b6457e090600090a35050565b600061106b662386f26fc100006113a1565b9050600061107960646113a1565b6040805160a08101825285815260075460208083019190915291810185905260016060820181905260ff84166080830152600980549182018155600052815180519495509193849360049092027f6e1540171b6c0c960b71a7020d9f60077f6af931a8bbf590da0223dacf75c7af01926110f7928492910190611683565b50602082015160018201556040820151600282015560608201516003909101805460809093015160ff9081166101000261ffff199094169216919091179190911790556007546111489033906113f6565b600754604080519182526020820185905233917fe6fa9115bb47e922f553f5e6b74bbca4f98acd15907a08c4f17e0562f7b3ec05910160405180910390a26007805490600061119683611c3d565b919050555050505050565b816001600160a01b0316836001600160a01b031614156112035760405162461bcd60e51b815260206004820152601960248201527f4552433732313a20617070726f766520746f2063616c6c6572000000000000006044820152606401610573565b6001600160a01b03838116600081815260056020908152604080832094871680845294825291829020805460ff191686151590811790915591519182527f17307eab39ab6107e8899845ad3d59bd9653f200f220920489ca2b5937696c31910160405180910390a3505050565b61127b848484610e67565b61128784848484611410565b610a565760405162461bcd60e51b815260040161057390611c58565b6060816112c75750506040805180820190915260018152600360fc1b602082015290565b8160005b81156112f157806112db81611c3d565b91506112ea9050600a83611cc0565b91506112cb565b60008167ffffffffffffffff81111561130c5761130c6118aa565b6040519080825280601f01601f191660200182016040528015611336576020820181803683370190505b5090505b8415610e5f5761134b600183611c0e565b9150611358600a86611cd4565b611363906030611c25565b60f81b81838151811061137857611378611ce8565b60200101906001600160f81b031916908160001a90535061139a600a86611cc0565b945061133a565b60008042336040516020016113d292919091825260601b6bffffffffffffffffffffffff1916602082015260340190565b60408051601f1981840301815291905280516020909101209050610c638382611cd4565b61075582826040518060200160405280600081525061150e565b60006001600160a01b0384163b1561150357604051630a85bd0160e11b81526001600160a01b0385169063150b7a0290611454903390899088908890600401611cfe565b6020604051808303816000875af192505050801561148f575060408051601f3d908101601f1916820190925261148c91810190611d3b565b60015b6114e9573d8080156114bd576040519150601f19603f3d011682016040523d82523d6000602084013e6114c2565b606091505b5080516114e15760405162461bcd60e51b815260040161057390611c58565b805181602001fd5b6001600160e01b031916630a85bd0160e11b149050610e5f565b506001949350505050565b6115188383611541565b6115256000848484611410565b6106a95760405162461bcd60e51b815260040161057390611c58565b6001600160a01b0382166115975760405162461bcd60e51b815260206004820181905260248201527f4552433732313a206d696e7420746f20746865207a65726f20616464726573736044820152606401610573565b6000818152600260205260409020546001600160a01b0316156115fc5760405162461bcd60e51b815260206004820152601c60248201527f4552433732313a20746f6b656e20616c7265616479206d696e746564000000006044820152606401610573565b6001600160a01b0382166000908152600360205260408120805460019290611625908490611c25565b909155505060008181526002602052604080822080546001600160a01b0319166001600160a01b03861690811790915590518392907fddf252ad1be2c89b69c2b068fc378daa952ba7f163c4a11628f55a4df523b3ef908290a45050565b82805461168f90611b08565b90600052602060002090601f0160209004810192826116b157600085556116f7565b82601f106116ca57805160ff19168380011785556116f7565b828001600101855582156116f7579182015b828111156116f75782518255916020019190600101906116dc565b50611703929150611707565b5090565b5b808211156117035760008155600101611708565b6001600160e01b031981168114610a1657600080fd5b60006020828403121561174457600080fd5b8135610c638161171c565b60005b8381101561176a578181015183820152602001611752565b83811115610a565750506000910152565b6000815180845261179381602086016020860161174f565b601f01601f19169290920160200192915050565b602081526000610c63602083018461177b565b6000602082840312156117cc57600080fd5b5035919050565b80356001600160a01b03811681146117ea57600080fd5b919050565b6000806040838503121561180257600080fd5b61180b836117d3565b946020939093013593505050565b60008060006060848603121561182e57600080fd5b611837846117d3565b9250611845602085016117d3565b9150604084013590509250925092565b60006020828403121561186757600080fd5b610c63826117d3565b60a08152600061188360a083018861177b565b602083019690965250604081019390935260ff918216606084015216608090910152919050565b634e487b7160e01b600052604160045260246000fd5b600067ffffffffffffffff808411156118db576118db6118aa565b604051601f8501601f19908116603f01168101908282118183101715611903576119036118aa565b8160405280935085815286868601111561191c57600080fd5b858560208301376000602087830101525050509392505050565b60006020828403121561194857600080fd5b813567ffffffffffffffff81111561195f57600080fd5b8201601f8101841361197057600080fd5b610e5f848235602084016118c0565b6000806040838503121561199257600080fd5b61199b836117d3565b9150602083013580151581146119b057600080fd5b809150509250929050565b600080600080608085870312156119d157600080fd5b6119da856117d3565b93506119e8602086016117d3565b925060408501359150606085013567ffffffffffffffff811115611a0b57600080fd5b8501601f81018713611a1c57600080fd5b611a2b878235602084016118c0565b91505092959194509250565b60006020808301818452808551808352604092508286019150828160051b87010184880160005b83811015611ac757603f19898403018552815160a08151818652611a848287018261177b565b838b0151878c0152898401518a88015260608085015160ff9081169189019190915260809485015116939096019290925250509386019390860190600101611a5e565b509098975050505050505050565b60008060408385031215611ae857600080fd5b611af1836117d3565b9150611aff602084016117d3565b90509250929050565b600181811c90821680611b1c57607f821691505b60208210811415611b3d57634e487b7160e01b600052602260045260246000fd5b50919050565b60208082526031908201527f4552433732313a207472616e736665722063616c6c6572206973206e6f74206f6040820152701ddb995c881b9bdc88185c1c1c9bdd9959607a1b606082015260800190565b6020808252818101527f4f776e61626c653a2063616c6c6572206973206e6f7420746865206f776e6572604082015260600190565b60008351611bdb81846020880161174f565b835190830190611bef81836020880161174f565b01949350505050565b634e487b7160e01b600052601160045260246000fd5b600082821015611c2057611c20611bf8565b500390565b60008219821115611c3857611c38611bf8565b500190565b6000600019821415611c5157611c51611bf8565b5060010190565b60208082526032908201527f4552433732313a207472616e7366657220746f206e6f6e20455243373231526560408201527131b2b4bb32b91034b6b83632b6b2b73a32b960711b606082015260800190565b634e487b7160e01b600052601260045260246000fd5b600082611ccf57611ccf611caa565b500490565b600082611ce357611ce3611caa565b500690565b634e487b7160e01b600052603260045260246000fd5b6001600160a01b0385811682528416602082015260408101839052608060608201819052600090611d319083018461177b565b9695505050505050565b600060208284031215611d4d57600080fd5b8151610c638161171c56fea2646970667358221220171ae0c2db7a97f657dec7260bc05c0901804649a6ff350e7278ba931e7a5b6864736f6c634300080a0033",
  "immutableReferences": {},
  "source": "// SPDX-License-Identifier: MIT\n\npragma solidity ^0.8.0;\n\nimport \"@openzeppelin/contracts/token/ERC721/ERC721.sol\";\nimport \"@openzeppelin/contracts/access/Ownable.sol\";\n\ncontract PokeToken is ERC721, Ownable {\n    constructor(string memory _name, string memory _symbol)\n        ERC721(_name, _symbol)\n    {}\n\n    uint256 COUNTER;\n\n    uint256 fee = 1 ether;\n\n    struct Pokemon {\n        string name;\n        uint256 id;\n        uint256 dna;\n        uint8 level;\n        uint8 rarity;\n    }\n\n    Pokemon[] public pokemons;\n\n    event NewPokemon(address indexed owner, uint256 id, uint256 dna);\n\n    // Helpers\n    function _createRandomNumber(uint256 _mod) internal view returns(uint256) {\n        uint256 randomNumber = uint256(keccak256(abi.encodePacked(block.timestamp, msg.sender)));\n        return randomNumber % _mod;\n    }\n\n    function updateFee(uint256 _fee) external onlyOwner {\n        fee = _fee;\n    }\n\n    function withdrawFunds() external onlyOwner() {\n        address _owner = owner();\n        payable(_owner).transfer(address(this).balance);\n    }\n\n\n    // Creation\n    function _createPokemon(string memory _name) internal {\n        uint256 randomDna = _createRandomNumber(10**16);\n        uint8 randomRarity = uint8(_createRandomNumber(100));\n        Pokemon memory newPokemon = Pokemon(_name, COUNTER, randomDna, 1, randomRarity);\n        pokemons.push(newPokemon);\n        _safeMint(msg.sender, COUNTER);\n        emit NewPokemon(msg.sender, COUNTER, randomDna);\n        COUNTER++;\n    }\n\n    function createRandomPokemon(string memory _name) public payable {\n        require(msg.value == fee, \"The fee is not correct.\");\n        _createPokemon(_name);\n    }\n\n    // Getters\n    function getPokemons() public view returns(Pokemon[] memory){\n        return pokemons;\n    }\n}",
  "sourcePath": "/home/vienio99/PycharmProjects/poke-nft/contracts/PokeToken.sol",
  "compiler": {
    "name": "solc",
    "version": "0.8.10+commit.fc410830.Emscripten.clang"
  },
  "schemaVersion": "3.4.3",
  "updatedAt": "2021-12-14T14:08:56.839Z",
  "networkType": "ethereum",
  "devdoc": {
    "kind": "dev",
    "methods": {
      "approve(address,uint256)": {
        "details": "See {IERC721-approve}."
      },
      "balanceOf(address)": {
        "details": "See {IERC721-balanceOf}."
      },
      "getApproved(uint256)": {
        "details": "See {IERC721-getApproved}."
      },
      "isApprovedForAll(address,address)": {
        "details": "See {IERC721-isApprovedForAll}."
      },
      "name()": {
        "details": "See {IERC721Metadata-name}."
      },
      "owner()": {
        "details": "Returns the address of the current owner."
      },
      "ownerOf(uint256)": {
        "details": "See {IERC721-ownerOf}."
      },
      "renounceOwnership()": {
        "details": "Leaves the contract without owner. It will not be possible to call `onlyOwner` functions anymore. Can only be called by the current owner. NOTE: Renouncing ownership will leave the contract without an owner, thereby removing any functionality that is only available to the owner."
      },
      "safeTransferFrom(address,address,uint256)": {
        "details": "See {IERC721-safeTransferFrom}."
      },
      "safeTransferFrom(address,address,uint256,bytes)": {
        "details": "See {IERC721-safeTransferFrom}."
      },
      "setApprovalForAll(address,bool)": {
        "details": "See {IERC721-setApprovalForAll}."
      },
      "supportsInterface(bytes4)": {
        "details": "See {IERC165-supportsInterface}."
      },
      "symbol()": {
        "details": "See {IERC721Metadata-symbol}."
      },
      "tokenURI(uint256)": {
        "details": "See {IERC721Metadata-tokenURI}."
      },
      "transferFrom(address,address,uint256)": {
        "details": "See {IERC721-transferFrom}."
      },
      "transferOwnership(address)": {
        "details": "Transfers ownership of the contract to a new account (`newOwner`). Can only be called by the current owner."
      }
    },
    "version": 1
  },
  "userdoc": {
    "kind": "user",
    "methods": {},
    "version": 1
  }
}